:020000040000FA
:200000000203370218034100C4002202180B222222FFFF021813E4FFA10EFF02181B75C8A7
:200020000122FF021823FFFFFFFFFF02182BFFFFFFFFFF021833FFFFFFFFFF02183BFFFF8B
:20004000FFFFFF021843FFFFFFFFFF02184BFFFFFFFFFF021853FFFFFFFFFF02185BFFFF10
:20006000FFFFFF021863FFFFFFFFFF02186BFFFFFFFFFF021873BB010689828A83E02250D2
:2000800002E722BBFE02E32289828A83E49322BB010CE58229F582E5833AF583E0225006A3
:2000A000E92582F8E622BBFE06E92582F8E222E58229F582E5833AF583E49322BB01068960
:2000C000828A83F0225002F722BBFE01F322F8BB010DE58229F582E5833AF583E8F0225019
:2000E00006E92582C8F622BBFE05E92582C8F222C5F0F8A3E028F0C5F0F8E58215827002FB
:200100001583E038F022A3F8E0C5F025F0F0E582158270021583E0C838F0E822BB010A89B7
:20012000828A83E0F5F0A3E022500687F009E71922BBFE07E3F5F009E3192289828A83E423
:2001400093F5F074019322BB010A89828A83F0E5F0A3F0225006F709A7F01922BBFE06F3CB
:20016000E5F009F31922EF2BFFEE3AFEED39FDEC38FC22C3EF9BFFEE9AFEED99FDEC98FCFA
:200180002275F008758200EF2FFFEE33FECD33CDCC33CCC58233C5829BED9AEC99E582989E
:2001A000400CF582EE9BFEED9AFDEC99FC0FD5F0D6E4CEFBE4CDFAE4CCF9A88222B800C180
:2001C000B90059BA002DEC8BF084CFCECDFCE5F0CBF97818EF2FFFEE33FEED33FDEC33FC38
:2001E000EB33FB10D703994004EB99FB0FD8E5E4F9FA227818EF2FFFEE33FEED33FDEC33D3
:20020000FCC933C910D7059BE99A4007EC9BFCE99AF90FD8E0E4C9FAE4CCFB2275F010EF2E
:200220002FFFEE33FEED33FDCC33CCC833C810D7079BEC9AE899400AED9BFDEC9AFCE89964
:20024000F80FD5F0DAE4CDFBE4CCFAE4C8F922EF5BFFEE5AFEED59FDEC58FC22EB9FF5F038
:20026000EA9E42F0E99D42F0E89C45F022E8600FECC313FCED13FDEE13FEEF13FFD8F12234
:20028000E8600FEFC333FFEE33FEED33FDEC33FCD8F122E0FCA3E0FDA3E0FEA3E0FF22E080
:2002A000F8A3E0F9A3E0FAA3E0FB22ECF0A3EDF0A3EEF0A3EFF022A8828583F0D083D08265
:2002C0001202CE1202CE1202CE1202CEE473E493A3C583C5F0C583C8C582C8F0A3C583C569
:2002E000F0C583C8C582C822E0FBA3E0FAA3E0F922F8E0FBA3A3E0F925F0F0E58215827072
:20030000021583E0FA38F022EBF0A3EAF0A3E9F022D083D082F8E4937012740193700DA36B
:20032000A393F8740193F5828883E4737402936860EFA3A3A380DF75814B02079BAEFFEE26
:2003400054CFFEEFC454F024804EF5FF2290091151AB9009115193B1A1900915E06F603466
:20036000110F9102EF6004111080F7B11AB1DB9000BAE0FF91E660099009115193781071F8
:200380009A900911719690091191EF900915E0FFB108D322C32251937808516DE4E5C820F5
:2003A000E2FB8FEB229000D151AB9000D57108110F9102EF6004111080F7B11AB1DB900004
:2003C000BAE0FF91E660099000D151937810719A9000D171969000D15193E4801B9000D838
:2003E000D1BB60189000D551E8EA494B60089000D5120E2B8001E4FF719D80E1B126E4FF38
:20040000A10E7F01B10E30021491D8915290092AEFF0B12690092AE020E002C20230021731
:2004200091419000B8EF91F4600BA3E0F46006EF30E702C202B126E4FFB10EA202E433FFE7
:2004400022B1DB7FD7719D7FFF719D91569000B7EFF07FFF719DE5C820E2FBAFEB227F017F
:20046000B10E9009287401F0900928E0602E91D89152900928EFF0B12691419000B8EFF0AC
:20048000B126900928E0540191F460DCA3E0F460D7EF30E7D3E4900928F080CCB1DB7F9FBC
:2004A000719D91529000B991509000BE91509000BFEFF0B10A9000B7E0F4601BA3E0F4609C
:2004C000169000BEE0FD541F240FA3F0EDC413540744809000BEF022B1DB7F05619D7F01D1
:2004E000B10EB1DB7F03719D9000BDE06402225193E4619DF09000B7E0FFF422FFFFFFFF7E
:20050000FFFFFFFFFFFFFFFF719DB126E4FFEFB4010443FE202253FEDF227F01B10ED2028B
:20052000B1DB7F06719D1213E7EF70FA9000BEE0F4600A9009277406F0F17D70FC9000BC5B
:20054000E07111055F04056714056C15057117058130058634058B36059037000005794376
:200560004610854680802F43471080084347208003434780854790801D4348208548A08041
:2005800015434901800D434910800843494080034349808549B0900927740CF0F17D70FC25
:2005A0002290090C51AB110F9102EF6004111080F791DE600990090C51937810719A90094D
:2005C0000C719690090C91EF9152900910EFF0B10A900910E0FF227F01B10E9000BCE07137
:2005E0001105FD04060514060A15060F17061F30062434062936062E37000006175346EF4C
:20060000854680802F5347EF80085347DF800353477F854790801D5348DF8548A0801553F2
:2006200049FE800D5349EF80085349BF800353497F8549B07F0CDFFE22110F9102EF6004CC
:20064000111080F7B11AB1DB7F01719D7F03719DB126E4FFA10E9000DA51AB9000DE7108D7
:20066000110F9102EF6004111080F791DE60099000DA51937810719A9000DA71969000DA48
:2006800091EF9000E1D1BB601291529000DE51E8EF11BC9000DF1212AA80E7B126E4FFA126
:2006A0000E9000B7E020E012B1D77F3D719D7F2A719D7F80719D7FA6B1082274FFF5F03154
:2006C0000645F022900929EFF09000C5E064027022B1D7900929E07FAB60027FB9719DB142
:2006E00026900929E09000C4F070047F1EDFFEE4FFB10E22900000EEF0A3EFF0A351939035
:20070000000851AB900006E0FFA3E090000CCF805D90000C120FDC605BC3EF9440EE940039
:200720004006A37440F0800590000EEFF0F185E0FF120D0DEFF09000085193D15690000E89
:20074000E0FFC390000DE09FF090000CE09400F0900008519F90000EE4FCFDFE31669000C3
:200760000851ABF174F185120C32900000EEF0A3EFF0809D900000E0FEA3E0FF229009276B
:20078000E014F0E0227B017A00790F90000E22110F9102EF6004111080F72275FF03759EEB
:2007A000029017FAE493F53C75FF02E5E654036003020B5D753CDE753DAD753EBE753FEF87
:2007C000C2AF75FF0275E404F5E47546FF7547FF7548FF7549FF7542FF7543FF7544FF7574
:2007E00045FF75FF0253E6BF1212CD1210D4120FE3EF64016003020B5490180893FE74018E
:2008000093FF9000ADEEF0A3EFF0F5828E83E493F540740193F541740293F54A740393F5F0
:200820004B740493F530740593F531740693F532740793F533C201EF4E7002212BEFF4FF01
:20084000EEF44F7002212BE540454AFEE541454BFFE5304EFEE5314FFFE5324EFEE5334FB3
:200860004E7002212BE54BF4FFE54AF4FEE541F4FDE540F44EFEED4FFFE531F4FDE530F461
:200880004EFEEF4DFFE533F4FDE532F44EFEEF4D4E7002212B7F0312033DE53324FFFFE536
:2008A00032B124640370247F0212033DE53124FFFFE530B124B402137F0112033DE54B2452
:2008C000FFFFE54AB124B40102D20120015D7F0112033DB1459000E8E54AF0A3E54BF07F6D
:2008E0000F7E1D91A57F02B13A9000E8E530F0E53191A37F03B13A9000E8E532F0E5339150
:20090000A37F0112033D900922E0FEA3E0FF7BFF7A187900E425419000E9F0E54034E8903E
:2009200000E891A44EC37001D39201300109B19AEF6401600261549000ADE0FEA3E0F582AD
:200940008E83740C93F53A740D93F53B9000961202937160900079B181FD9000AF7188EF03
:200960002408FFE43E71727B007A007938B10D7402F0120656C200D3900078E09539900034
:2009800077E09538400241639000AF12029FC000C001C002C003AE38AF39E4FCFDC006C024
:2009A00007900077E0FEA3E0FBAA06E4F9F8D007D006120173D003D002D001D00012016656
:2009C000716090007B120293EF24F2FFEE34FFB14C9000AFB1D4400241639000AF120293E2
:2009E0007A00799FB10B740EF01206569000ABE0F536A3E0F5379000A1E0F54AA3E0F54BC1
:200A0000A3E0F530A3E0F531A3E0F532A3E0F533900092120293EF24FFFFEE347F71727161
:200A200060AE4AAF4BE4FCFD9000AF71881205A1EF6401702E71667160AE30AF31E4FCFD62
:200A40009000AF71881205A1BF021871667160AE32AF33E4FCFD9000AF71881205A1BF03D4
:200A600002D200200002615030010EE53B65377004E53A6536700261507B017A0979227178
:200A80008E4002615090009B1202B700001800717A612A7440D395345002613F90007B9173
:200AA000B3EE34F8B14C9000AF12029FD312025C4002613F90009B1202937B007AF879011C
:200AC0007800C312025C40779000AF1202930B7A0179009000E17408F0A3E4F0120656E429
:200AE000F535FB91DFAF34B156E535C39408502091DDE5357F00FEEF2400F974013EFA7B55
:200B00000190090BE535F0AD34121330053580D990009B91B3EE3408717290009B1202ABF7
:200B20009000AF91B3EE340871727160E4FB7A08F9F890009B1202931201BD8F3441937455
:200B400040D39534400A91DDAF34B156053480EFE4FFB1DBE4F53CF53DF53EF53F02180038
:200B60009000AF0202AB9000AF120293E42FFFEE3480FEE43DFDE43CFC22900079E0FEA309
:200B8000E0FFE4FCFD90009612029F02016690091F120308717AEF2408FFE43E71727A00FE
:200BA000797FB10B7402F012065690007FB181FD90009271887B017A007984B10D740EF031
:200BC000120656900092716991C2900086B12D7F0F7E1D91C8B114C006C00791B0E43E919C
:200BE000BA900088B12DD007D00691C8B114C006C00791B0EE348091BA90008AB12DD007F0
:200C0000D00691C8B114C006C007717A91C2900085E02400FE900084E034E8900006F0A3C5
:200C2000CEF0D007D00691C812011C45F0C37001D322E0FD9000E8E4F0A3EDF09000E3EE59
:200C4000F0A3EFF0A31203089000E81206BB604A9000E5D12B9000EAF07D80ED60EA919A33
:200C6000EE7C0030E7027C019000EAE05D7B0060027B01EB6CFCEF25E0FFEE339000E3F09A
:200C8000A3EFF0AF04EF600C9000E3E06410F0A3E06421F0EDC313FD80C19000E3E0FEA320
:200CA000E0FF22A3F0913C900922EEF0A3EFF022900092120293E42FFF22FEED3401FDE498
:200CC0003CFC9000020202AB1206F490091F1202E8EE8FF012014790091F0202E87B007A7B
:200CE00000793CB17A75FF03120076F5D375FF03900001B11B900002B11B900003B11B7547
:200D0000D40175FF03E5D55402FF227B019000E1E4F0A32212011CFFAEF02212008FF5D379
:200D200075FF0322347F8F82F583E49322E0FFA3E0900006CFF0A3EFF02212033D900922DD
:200D4000E0FEA3E0FF7BFF7A80790022FEED34FFFDEC34FFFC2275FF03EF543F4480F5D149
:200D6000E5D520E20AE5D520E005E5D530E1F1E5D55403FF75FF0375D50575FF0375D4029A
:200D800022E0FEA3E0FFE4FC227F0F7E1D91349000EF1202E89000F28132E4900926F0900E
:200DA000009AE06020B1CB70087FFF7E77FDFC800CD11B50107FFF7EFF7D017C001205A154
:200DC000900926EFF0900926E0FF22E4FFFE7D02FC90007B12029FC302025C900924EFF0DC
:200DE000E4A3F090009AE06021B1CB7008D1107E777D00800AD11B5011D1107EFF7D017C7B
:200E00000012034DE433900925F0900925E0FF22900924E0900915F07FFF2290007B1202F2
:200E200093E4FBFA7904F8D302025CE475F0011202F1020076B17A75FF03E5D5F45402FF32
:200E4000229000FCD15CC0079000FC1202E89000FFE0FFB10DEFF0D007020656120308E427
:200E6000FCFD22900902D15CC0079009021202E8900905F1D0F0D00790004F1202AB9000DD
:200E800053120308E4900076F0D3900057E0941E900056E094004001227B017A00795890A8
:200EA0000056E0FFA3E09000E1CFF0A3EFF090004F1202931206569000531202E8E94A6062
:200EC0000F900076E0F58275830012008FFF80027F00900076E02458F582E43400F583E0C4
:200EE0006F6002C322900076E004FFF0D3900057E09F900056E0940050BD229000C6120237
:200F0000AB9000CA1203081214389000CDF1D0F09000C6120293D1785002E1C59000C1E0D4
:200F200024FFFF9000C0E034FFFEE4FCFD9000C612029F12024F9000CFEEF0A3EFF04E6078
:200F40003BF1C7C39000C1E09FFF9000C0E09EFE9000CFF0A3EFF09000CDE0FCA3E0FDD3E3
:200F60009FEC9E5006A3ECF0A3EDF01213F3E94A6004F1C780427E007F00803C9000CDF1C3
:200F8000DC60409000C0E0FCA3E0FDD3EF9DEE9C400A9000CFECF0A3EDF0800D9000CDE071
:200FA000FFA3E0A3CFF0A3EFF01213F3E94A6004F1C780047E007F009000CBEE8FF0120009
:200FC000F080B9D322C3229000CFE0FEA3E0FF22E0FFA3E0900056CFF0A3EF22E0FEA3E011
:200FE000FF4E22E490009AF07B017A007981121378900083E0FBB411229000961202B70031
:201000000078009000921202B7000060009000777418F0A3E4F0A3F0A380277412D39B50F0
:20102000279000961202B7000200009000921202B700020000E4900077F0A3F0A37418F01A
:20104000A3E4F090009A04F090009AE0FB6017E4FFFE7D02FC900083E024EFF9F812028098
:2010600090007B1202ABAF032275FF03E4F59751B1E59720E1FB75FF03AF9922900916EFF2
:20108000F0A3EDF0A3120308900917E06045901215E06012900916E02410FF1169900918F5
:2010A0001202E8EF8017900916E0640190091870071202E8748080051202E874FF1200BCE0
:2010C00090091951AA900917E014F0900916E004F080B5227B017A0079BC7F0351917A00EC
:2010E00079C57F0851917A0079C27D027F09117C7B017A0079C07D027F0B117C9000C012D9
:201100000FDC6006BEFF1BBFFF189000C5E024FD600304700451A080099000C0E4F0A374EA
:2011200040F09000C5E024FD60030470089000BD7403F080069000BD7402F09000BCE0121F
:201140000311115E04116914117115117917118F30119734119F3611A7370000118475FFB8
:20116000015342EF8542FD804775FF015343EF800E75FF015343DF800675FF0153437F8558
:2011800043C9802C75FF015344DF8544CA802175FF015345FE801675FF015345EF800E75D8
:2011A000FF015345BF800675FF0153457F8545CB1205267F11518BE4FF1206C412045E90C5
:2011C00000BA7402F09000BEE0247F60090470165198740A80071206A151987458F090004F
:2011E000BD7403F051A09000BFE0F4600241889000C2E0FEA3E0FF64104E70069000BF74DF
:201200000EF0EF64204E70069000BF740FF0EF64404E70069000BF7410F0EF64804E700626
:201220009000BF7411F0E4B5070AEEB401069000BF7412F0E4B5070AEEB402069000BF74BB
:2012400013F0E4B5070AEEB404069000BF7414F0E4B5070AEEB408069000BF7415F0E4B5B3
:20126000070AEEB410069000BF7416F0E4B5070AEEB420069000BF7417F0E4B5070AEEB454
:2012800040069000BF7418F0020639EF4420F5FE227D01117C7B01227F10518B9000BA2214
:2012A0009000C07401F0A3E4F022E475F0010200F075FF038F9875FF032275FF03759701E9
:2012C00051B1E59720E1FB75FF03AF992290091B7410F090091BE0FFD3947F503D1169907B
:2012E000091CEFF090091BE0B410067E1D7F0F800890091DE0FEA3E0FF7B017A09791C90A1
:2013000000E8E4F0A304F0120C3C90091DEEF0A3EFF090091BE004F080B990091DE0700241
:20132000A3E07F0070027F01901215EFF024FF2275FF03ACD5EC20E13C75FF03ED543FF5D1
:20134000D175FF03E9F5D375FF03EA540FFF90090BE0C4547044804FF5D2E5D520E205E545
:20136000D530E0F6E5D55401FC75FF0343D40275FF0375D505AF04229000B9E01200BC90D5
:2013800000BEE09000011200CE9000BFE09000020200CEE4FCFD0205A1AB05E4FCFD900902
:2013A00015EBF002034D9000F5120E5CC0079000F51202E89000F8E0FFA3E09000CDCFF09C
:2013C000A3EFF0D007020EFBEFB40109D2AD75FF0143AE4022C2AD75FF0153AEBF22E5C842
:2013E0005402FF75C80222E5C85404FF22E5C85401FF229000CA1202E89000CFE0FFA3E0D7
:201400009000D8CFF0A3EFF09000C61202931203A59000CFE0FEA3E0FFC39000CEE09FF01D
:201420009000CDE09EF09000C612029FE4FCFD1201669000C61202AB9000CA0202E8FFFF29
:20144000FFFFFFFFFFFFFFFFFFFFFFFFFFFFFFFFFFFFFFFFFFFFFFFFFFFFFFFFFFFFFFFFAC
:20146000FFFFFFFFFFFFFFFFFFFFFFFFFFFFFFFFFFFFFFFFFFFFFFFFFFFFFFFFFFFFFFFF8C
:20148000FFFFFFFFFFFFFFFFFFFFFFFFFFFFFFFFFFFFFFFFFFFFFFFFFFFFFFFFFFFFFFFF6C
:2014A000FFFFFFFFFFFFFFFFFFFFFFFFFFFFFFFFFFFFFFFFFFFFFFFFFFFFFFFFFFFFFFFF4C
:2014C000FFFFFFFFFFFFFFFFFFFFFFFFFFFFFFFFFFFFFFFFFFFFFFFFFFFFFFFFFFFFFFFF2C
:2014E000FFFFFFFFFFFFFFFFFFFFFFFFFFFFFFFFFFFFFFFFFFFFFFFFFFFFFFFFFFFFFFFF0C
:20150000FFFFFFFFFFFFFFFFFFFFFFFFFFFFFFFFFFFFFFFFFFFFFFFFFFFFFFFFFFFFFFFFEB
:20152000FFFFFFFFFFFFFFFFFFFFFFFFFFFFFFFFFFFFFFFFFFFFFFFFFFFFFFFFFFFFFFFFCB
:20154000FFFFFFFFFFFFFFFFFFFFFFFFFFFFFFFFFFFFFFFFFFFFFFFFFFFFFFFFFFFFFFFFAB
:20156000FFFFFFFFFFFFFFFFFFFFFFFFFFFFFFFFFFFFFFFFFFFFFFFFFFFFFFFFFFFFFFFF8B
:20158000FFFFFFFFFFFFFFFFFFFFFFFFFFFFFFFFFFFFFFFFFFFFFFFFFFFFFFFFFFFFFFFF6B
:2015A000FFFFFFFFFFFFFFFFFFFFFFFFFFFFFFFFFFFFFFFFFFFFFFFFFFFFFFFFFFFFFFFF4B
:2015C000FFFFFFFFFFFFFFFFFFFFFFFFFFFFFFFFFFFFFFFFFFFFFFFFFFFFFFFFFFFFFFFF2B
:2015E000FFFFFFFFFFFFFFFFFFFFFFFFFFFFFFFFFFFFFFFFFFFFFFFFFFFFFFFFFFFFFFFF0B
:20160000FFFFFFFFFFFFFFFFFFFFFFFFFFFFFFFFFFFFFFFFFFFFFFFFFFFFFFFFFFFFFFFFEA
:20162000FFFFFFFFFFFFFFFFFFFFFFFFFFFFFFFFFFFFFFFFFFFFFFFFFFFFFFFFFFFFFFFFCA
:20164000FFFFFFFFFFFFFFFFFFFFFFFFFFFFFFFFFFFFFFFFFFFFFFFFFFFFFFFFFFFFFFFFAA
:20166000FFFFFFFFFFFFFFFFFFFFFFFFFFFFFFFFFFFFFFFFFFFFFFFFFFFFFFFFFFFFFFFF8A
:20168000FFFFFFFFFFFFFFFFFFFFFFFFFFFFFFFFFFFFFFFFFFFFFFFFFFFFFFFFFFFFFFFF6A
:2016A000FFFFFFFFFFFFFFFFFFFFFFFFFFFFFFFFFFFFFFFFFFFFFFFFFFFFFFFFFFFFFFFF4A
:2016C000FFFFFFFFFFFFFFFFFFFFFFFFFFFFFFFFFFFFFFFFFFFFFFFFFFFFFFFFFFFFFFFF2A
:2016E000FFFFFFFFFFFFFFFFFFFFFFFFFFFFFFFFFFFFFFFFFFFFFFFFFFFFFFFFFFFFFFFF0A
:20170000FFFFFFFFFFFFFFFFFFFFFFFFFFFFFFFFFFFFFFFFFFFFFFFFFFFFFFFFFFFFFFFFE9
:20172000FFFFFFFFFFFFFFFFFFFFFFFFFFFFFFFFFFFFFFFFFFFFFFFFFFFFFFFFFFFFFFFFC9
:20174000FFFFFFFFFFFFFFFFFFFFFFFFFFFFFFFFFFFFFFFFFFFFFFFFFFFFFFFFFFFFFFFFA9
:20176000FFFFFFFFFFFFFFFFFFFFFFFFFFFFFFFFFFFFFFFFFFFFFFFFFFFFFFFFFFFFFFFF89
:20178000FFFFFFFFFFFFFFFFFFFFFFFFFFFFFFFFFFFFFFFFFFFFFFFFFFFFFFFFFFFFFFFF69
:2017A000FFFFFFFFFFFFFFFFFFFFFFFFFFFFFFFFFFFFFFFFFFFFFFFFFFFFFFFFFFFFFFFF49
:2017C000FFFFFFFFFFFFFFFFFFFFFFFFFFFFFFFFFFFFFFFFFFFFFFFFFFFFFFFFFFFFFFFF29
:2017E000FFFFFFFFFFFFFFFFFFFFFFFFFFFFFFFFFFFFFFFFFFFFFFFFFFFF0426FFFEFFFFDE
:20180000021ECA1958195D227FB8FF02693C5A2D5761766520342E353400FF0268FE1A75FD
:201820001A7AFF0269411B511B56FF0258C9EF90183793901900730A20364CE560FF22EFEC
:20184000F56022822D1C16131110100250761C871C8CFF026946C2D5E830E70FB2D5E4C356
:201860009BFBE49AFAE499F9E498F8EC30E717B2D512188C122997E4C39BFBE49AFAE49915
:20188000F9E498F8800312299730D50DE4C39FFFE49EFEE49DFDE49CFC22789CE4F6D8FDD0
:2018A0009000007F007E10E4F0A3DFFCDEFA904FFFA3E583C394204011FEAF829020000EC3
:2018C0000FE48002F0A3DFFCDEFA121920021EDC22323F241E16110E0B09070504030201D2
:2018E000F0C8A791776760463835323024222014000101020203030404050506060707FFF4
:20190000C0607419C0E0C082C08375600AE5FF54CF4490F5FF22C0607419C0E0C082C08353
:20192000756020E5FF54CF4490F5FF22C0607419C0E0C082C083756036E5FF54CF44A0F504
:20194000FF22C0607419C0E0C082C08375604CE5FF54CF44B0F5FF229080032116908238CE
:20196000211690824221169080DB211690830D211690832621169082D3211690834F211607
:201980009081E421169081E721169081D921169081EE211690832F211690836E2116908252
:2019A0000E2116908C4C2116908C54211690AE02211690B004211690BEB5211690C02621D9
:2019C0001690C02C211690941E211690C3D5211690993E211690C973211690C9A9211690FC
:2019E000C9BB211690CA15211690CB06211690CC262116908398211690C94D211690C8FB23
:201A0000211690C915211690C86A211690BF89211690CD83211690CE2A211690CE0A21166D
:201A200090CE45211690BC8E211690C37A211690C2CF21169082A2211690CE73211690C616
:201A4000BD211690C80F211690C7C4211690C703211690D03E211690B8BE211690C5D021B9
:201A60001690D044211690CE1B211690CAFC211690CB5E211690D116211690D12D21169045
:201A8000C54E212C908006212C90E215212C90E343212C90917A212C90A473212C90D375F8
:201AA000212C90E35C212C90E35D212C90E363212C90D0C9212C90A04D212C90E36C212C11
:201AC00090A0AC212C90A11C212C90A004212C90DDEC212C909A9F212C909AB7212C90A1A7
:201AE000A0212C90DF3A212C90DF19212C90DE85212C90DDF7212C90872D212C90E3F42124
:201B00002C90C192212C90AE3C212C90E41D212C90915A212C909112212C90DD29212C9009
:201B2000E4CB212C90E4DC212C90B2C0212C90DCAB212C90E4FF212C90A769212C90E50235
:201B4000212C90E50C212C90BB53212C90E512212C90A7EF212C90E518212C90AFB5212C1D
:201B600090AFB8212C90AEC6212C90AE0A212C90E5DE212C90A36E212C90E7DE212C90E893
:201B800007212C90E80F212C90E85C212C90EC3B212C90EFA8212C90A3E2212C90A44F217E
:201BA0002C90C4B6212C90AF83212C90C1E1212C90E2C8212C90E296212C90A428212C90FF
:201BC000A184212C90A3CC212C90F004212C90F00D212C90F014212C90F057212C90F0CB4C
:201BE000212C90A18D212C90F0EE212C90F11B212C90F16F212C90F1B3212C90F1B9212CA4
:201C000090C605212C90E10F212C90D21A212C90CC1E212C90CFC4212C90CAE3212C90F243
:201C2000BE212C90E005212C90D84D212C90CBB8212C90E049212C90CFE1212C90E02B2126
:201C40002C90F323212C90E14B212C90F324212C90DEF5212C90DF00212C90E12B212C9083
:201C6000CAC2212C90D7F2212C90F347212C90F396212C90AFBB212C90BDB5212C90A5D1CC
:201C8000212C90B7EB212C90DDD6212C90DF96212C90EF1F212C90C185212C909F012142F5
:201CA000909F58214290A017214290A020214290A02C214290A1A7214290A1AF214290A16F
:201CC000C9214290A34E214290A559214290A668214290A2DD214290A7FE214290A831216E
:201CE0004290AACD214290AA742142908039214290883D214290874A214290ADC42142900B
:201D000091AA2142909174214290ADDD21429091F5214290922B214290A658214290A8DA84
:201D2000214290AE0E214290AE822142909F3D2142909CA12142909A46214290AF022142F8
:201D400090AF0A214290926D21429089182142909169214290915D2142909160214290917E
:201D60006321429091662142909171214290AF1D214290AF20214290AF23214290915321E3
:201D80004290890F214290AF3421429098B02142909F292142909F2C2142909F2F2142909B
:201DA000AF9F214290892221429099472142909267214290824C214290B0542142909AC86B
:201DC000214290B0622142909D672142909D7E2142909270214290A05D214290B1382142D5
:201DE0009089362142909AD0214290B184214290B26B214290889B2142908F4621429088A6
:201E00006F2142908251214290B4162142908951214290A1F1214290997F214290AD1D2195
:201E2000429090E521429088A92142909C082142909C8A214290813B2142908B70214290F7
:201E4000B457214290B849214290BD9B2142908000214200902D5AE47E0193700122A3FF20
:201E6000543F30E509541FFEE493A360010ECF54E0B4E03AEFFAEEF9E493FBA3E493FEA3E9
:201E8000E493FFA3E493FDC083C082C001C002C006C007121985D007D006D002D001D082CE
:201EA000D083A30FEF70010EDADAD9D880A954C025E060105005A3DFFD809CA3A3A3DFFDE3
:201EC000DEFB8093A3A3DFFD808D75819C75FF03759E0212192002429F0218D0902D5AE4B6
:201EE0007E019360F4A3FF543F30E509541FFEE493A360010ECF54E0B4E00EEFFAEEF9A317
:201F0000A3A3A3DAFDD9FB80D654C025E0604B5026E493A3F85407240CC8C333C4540F44D7
:201F200020C8834004F456800146F6DFE480B00102040810204080E493A3FAE493A3F8E4EF
:201F400093A3C8C582C8CAC583CAF0A3C8C582C8CAC583CADFE9DEE78085E493A3F8E49337
:201F6000A34003F68001F208DFF4021EDF5E8672598573718480303170987A5AEF5E86729A
:201F80005985737184803031707A5AEF5E98845AEF5E8672845985737180303170987A1D08
:201FA000BD1DC21DC71DCC1DD111224488012B2F012B31012B32012B34012B3502010201EE
:201FC000010102040810000000000000000000000000000000001C4B1C501C551C5A1C5FAC
:201FE0001C641C691C6E980500000D45DA000D403000000000020C00013F3F3F040404FF35
:20200000DFFE22A2AF92D5C2AF11FEEF31353182EC31353182ED3135318211FE74014F3172
:202020003531827980800631B431E5F709DBF831B431F4F7512DA2D592AF22A2AF92D5C298
:20204000AF11FEEF31353182EC31353182ED313531827980E73135318209DBF8512DA2D5E5
:2020600092AF22A2AF92D5C2AF11FEEF31353182ED3135318211FE74014F313531827980D2
:20208000800631B431E5F709DBF831B431F4F7512DA2D592AF22A2AF92D5C2AF11FEEF313B
:2020A000353182ED313531827980E73135318209DBF8512DA2D592AF22A2AF92D5C2AF11CB
:2020C000FE74014F313531827980800631B431E5F709DDF831B431F4F7512DA2D592AF227D
:2020E000A2AF92D5C2AF11FEEF313531827980E73135318209DDF8512DA2D592AF2275FFFD
:20210000014353024357028553FD75FF014353014357018553FD5164C28175FF015353FD29
:202120008553FDC2815164C28075FF015353FE8553FDC280227808C28075FF015353FE85DE
:2021400053FDC28033400FC28175FF015353FD8553FDC281800C75FF01435302435702853E
:2021600053FD516475FF014353014357018553FD5164D8C3C28075FF015353FE8553FDC29C
:20218000802275FF014353024357028553FD75FF014353014357018553FD5164A281724A0F
:2021A000924A00000000C28075FF015353FE8553FDC2802275FF014353024357028553FD31
:2021C000780875FF014353014357018553FD5164A28133C28075FF015353FE8553FDC28086
:2021E0005164D8DE22C28175FF015353FD8553FDC281800E75FF014353024357028553FDD3
:20220000516475FF014353014357018553FD5164C28075FF015353FE8553FDC2805164C2EF
:202220008175FF015353FD8553FDC28122C28175FF015353FD8553FDC281C28075FF01534E
:2022400053FE8553FDC280516475FF014353014357018553FD516475FF0143530243570287
:202260008553FD2200000000000000000000000000000022022635E86480F8E933E833608D
:20228000110460F0ED33EC337009E8FCE9FDEAFEEBFF220460DED3EB9FEA9EE99DE8C2E725
:2022A0008CF0C2F795F0400CE8CCF8E9CDF9EACEFAEBCFFB12260085D0F05804700320D515
:2022C000B3E80470075002B2D502263F92D5EC0460F7E4CCC0E0C398F8603B941860084068
:2022E0000DD0E0FB022617E4FBFAC9FC8028E830E406E4C9FBE4CAFCE830E305E4C9CACB0B
:20230000FCE854076010F8C3E913F9EA13FAEB13FBEC13FCD8F130F52FC3E49CFCEF9BFF8E
:20232000EE9AFEED99FDD0E0FBEF4E4D4C701222DB0302263CEC2CFCEF33FFEE33FEED33B9
:20234000FDED30E7EB022617EF2BFFEE3AFEED39FDD0E0FB50130BBB000302263FED13FDB5
:20236000EE13FEEF13FFEC13FC022617EC4D6011E8497017ED33EC3304600DE4FCFFFEFD37
:2023800022E933E8330470F802263512260058046009E4CC2481500628500902263F284023
:2023A0000302263CC0E0EB4A7044B98006D0E0FB02262BEF4E701CBD8008EBFFEAFEE9FD2A
:2023C00080EBE98DF0A4FEE5F0022455E9CDF9EAFEEBFFEF89F0A4FCE5F0CE89F0A42EFFC4
:2023E000E435F0CD89F0A42DFEE435F08067EF4E7005BD80D780C3EF8BF0A4ACF0EE8BF0B3
:20240000A42CFCE435F0F8EF8AF0A42CE5F038FCE433CB8DF0A42CFCE5F03BF8EE8AF0A46E
:202420002CFCE5F038F8E433CF89F0A42CFCE5F038CF3400CE89F0A42FFFE5F03EFEE433F3
:20244000C98DF0A42EFEE5F039CD8AF0A42FFFE5F03EFEE43DFD33D0E0FB50070BBB000F06
:2024600002263FEC2CFCEF33FFEE33FEED33FD02261702263FEC5D046005E8590470030272
:202480002635122600580460F6EC4860F2EC7004FDFEFF22C860DB2481C85009C39860026F
:2024A000500602263C9850CAF582E9294B4A7005AB8202262B75F0007C1A7880C3EF9BEE6F
:2024C0009AED99400DC3EF9BFFEE9AFEED99FDE842F0DC23ACF0D0E0FFD0E0FED0E0FDABD0
:2024E0008220E7101BEB60BAEC2CFCEF33FFEE33FEED33FD022617E803F830E705C0F0754F
:20250000F000EF2FFFEE33FEED33FD40B830E7C280AA74F8CC6480CCC86480C8F582046040
:202520004FC3EB9FF5F0EA9E42F0E99D42F0E89C45F0603C501DE5825FFFE582D313CB5BAE
:20254000CBF42B5582FB50280ABA002409B9002008801DE5825BFBE582D313CF5FCFF4C31A
:20256000132F5582FF50090EBE00050DBD00010CC3EB9FF5F0EA9E42F0E99D42F0E89C45D5
:20258000F06007CC4820E701B3EC2275F020800E75F010800575F0087D007E007F0033924E
:2025A000D530D503122A43EC334010EF33FFEE33FEED33FDEC33FCD5F0ED22E5F0247EA2EB
:2025C000D513CC92E7CDCEFF22EDD2E7CD33EC3392D524814006E4FFFEFDFC22FCE4CFCE82
:2025E000CDCC24E0501174FF80EDC3CC13CCCD13CDCE13CECF13CF0470F030D5DE022A43CC
:20260000E9D2E7C933E833F892D5EDD2E7CD33EC33FC5002B2D522EC30E7100FBF000C0EEB
:20262000BE00080DBD00040BEB6014A2D5EB13FCED92E7FD2274FFFCFDFEFF22E480F8A21D
:20264000D574FF13FC7D80E480EFE709F608DFFA8046E709F208DFFA803E88828C83E709BC
:20266000F0A3DFFA8032E309F608DFFA8078E309F208DFFA807088828C83E309F0A3DFFA61
:20268000806489828A83E0A3F608DFFA805889828A83E0A3F208DFFA804C80D280FA80C6C0
:2026A00080D4806980F28033801080A680EA809A80A880DA80E280CA803389828A83ECFA9F
:2026C000E493A3C8C582C8CCC583CCF0A3C8C582C8CCC583CCDFE9DEE7800D89828A83E4C9
:2026E00093A3F608DFF9ECFAA9F0EDFB2289828A83ECFAE0A3C8C582C8CCC583CCF0A3C8B2
:20270000C582C8CCC583CCDFEADEE880DB89828A83E493A3F208DFF980CC88F0EF60010EBA
:202720004E60C388F0ED2402B4040050B9F582EB2402B4040050AF232345822390269A73AA
:20274000BB010689828A83E0225002E722BBFE02E32289828A83E49322BB010CE58229F584
:2027600082E5833AF583E0225006E92582F8E622BBFE06E92582F8E222E58229F582E5831B
:202780003AF583E49322BB010989828A83F8E028F022500327F722BBFE05F8E328F3228A0C
:2027A000838982F8E4932822BB010689828A83F0225002F722BBFE01F322F8BB010DE58284
:2027C00029F582E5833AF583E8F0225006E92582C8F622BBFE05E92582C8F222EF8DF0A445
:2027E000A8F0CF8CF0A428CE8DF0A42EFE22BC000BBE0029EF8DF084FFADF022E4CCF87574
:20280000F008EF2FFFEE33FEEC33FCEE9DEC984005FCEE9DFE0FD5F0E9E4CEFD22EDF8F528
:20282000F0EE8420D21CFEADF075F008EF2FFFED33FD4007985006D5F0F222C398FD0FD59C
:20284000F0EA22C5F0F8A3E028F0C5F0F8E582158270021583E038F022A3F8E0C5F025F010
:20286000F0E582158270021583E0C838F0E822BB010A89828A83E0F5F0A3E022500687F071
:2028800009E71922BBFE07E3F5F009E3192289828A83E493F5F074019322BB0110E5822964
:2028A000F582E5833AF583E0F5F0A3E0225009E92582F886F008E622BBFE0AE92582F8E289
:2028C000F5F008E222E5832AF583E993F5F0A3E99322BB010A89828A83F0E5F0A3F02250B3
:2028E00006F709A7F01922BBFE06F3E5F009F31922EF2BFFEE3AFEED39FDEC38FC22C3EFEC
:202900009BFFEE9AFEED99FDEC98FC22E88FF0A4CC8BF0A42CFCE98EF0A42CFC8AF0EDA416
:202920002CFCEA8EF0A4CDA8F08BF0A42DCC3825F0FDE98FF0A42CCD35F0FCEB8EF0A4FE6B
:20294000A9F0EB8FF0A4CFC5F02ECD39FEE43CFCEAA42DCE35F0FDE43CFC2275F0087582B1
:2029600000EF2FFFEE33FECD33CDCC33CCC58233C5829BED9AEC99E58298400CF582EE9BD0
:20298000FEED9AFDEC99FC0FD5F0D6E4CEFBE4CDFAE4CCF9A88222B800C1B90059BA002DCB
:2029A000EC8BF084CFCECDFCE5F0CBF97818EF2FFFEE33FEED33FDEC33FCEB33FB10D70326
:2029C000994004EB99FB0FD8E5E4F9FA227818EF2FFFEE33FEED33FDEC33FCC933C910D726
:2029E000059BE99A4007EC9BFCE99AF90FD8E0E4C9FAE4CCFB2275F010EF2FFFEE33FEED95
:202A000033FDCC33CCC833C810D7079BEC9AE899400AED9BFDEC9AFCE899F80FD5F0DAE40C
:202A2000CDFBE4CCFAE4C8F922EF5BFFEE5AFEED59FDEC58FC22EF4BFFEE4AFEED49FDEC9B
:202A400048FC22C3E49FFFE49EFEE49DFDE49CFC22EB9FF5F0EA9E42F0E99D42F0EC64807E
:202A6000C864809845F022EB9FF5F0EA9E42F0E99D42F0E89C45F022E8600FECC313FCEDFD
:202A800013FDEE13FEEF13FFD8F122E86010ECA2E713FCED13FDEE13FEEF13FFD8F022E890
:202AA000600FEFC333FFEE33FEED33FDEC33FCD8F122BB010789828A83022AEC5005E9F858
:202AC000022CD0BBFE05E9F8022CDC89828A83022AF8BB010789828A83022B695005E9F86C
:202AE000022D12BBFE05E9F8022D1E22E0FCA3E0FDA3E0FEA3E0FF22E493FC740193FD741A
:202B00000293FE740393FF22E0F8A3E0F9A3E0FAA3E0FB22BB010789828A83022B08500521
:202B2000E9F8022CE8BBFE05E9F8022CF589828A83022D027401FF3395E0FEFDFCA3A3A397
:202B4000E0CF2FF0E582158270021583E0CE3EF0E582158270021583E0CD3DF0E5821582E3
:202B600070021583E0CC3CF022ECF0A3EDF0A3EEF0A3EFF022A8828583F0D083D082122BCC
:202B80008C122B8C122B8C122B8CE473E493A3C583C5F0C583C8C582C8F0A3C583C5F0C56C
:202BA00083C8C582C822A42582F582E5F03583F58322E0FBA3E0FAA3E0F922F8E0FBA3A3A1
:202BC000E0F925F0F0E582158270021583E0FA38F022EBF0A3EAF0A3E9F022BB0107898227
:202BE0008A83022BB25005E9F8022D2ABBFE05E9F8022D3C89828A83022D4EBB011A8982DA
:202C00008A83D0F0D0E0F8D0E0F9D0E0FAD0E0FBE8C0E0C0F0022BD25016E9F8D083D0821E
:202C2000D0E0F9D0E0FAD0E0FBC082C083022D33BBFE16E9F8D083D082D0E0F9D0E0FAD037
:202C4000E0FBC082C083022D4522D083D082F8E4937012740193700DA3A393F8740193F595
:202C6000828883E4737402936860EFA3A3A380DFD083D082F8E4937012740193700DA3A307
:202C800093F8740193F5828883E473740293B5F0067403936860E9A3A3A3A380D88A8389DF
:202CA00082E473EC8EF0A4CCC5F0CCCDF8EFA4CEC5F02DFDE43CFCE8A42EC8C5F03DFDE46A
:202CC0003CFCEFA4FFE5F028FEE43DFDE43CFC22E6FC08E6FD08E6FE08E6FF22E2FC08E243
:202CE000FD08E2FE08E2FF22E6FB08E6F908E6FA08E6CBF822E2FB08E2F908E2FA08E2CB08
:202D0000F822E493F8740193F9740293FA740393FB22ECF608EDF608EEF608EFF622ECF259
:202D200008EDF208EEF208EFF222E6FB08E6FA08E6F922EBF608EAF608E9F622E2FB08E24E
:202D4000FA08E2F922EBF208EAF208E9F222E493FB740193FA740293F922412CC80041029E
:202D6000B20041340C00C151C139410415060114004104140141041301C12F011A000117C9
:202D800000C130C132C12641253300412599FF41259100C125C12441259A0041259B0041CD
:202DA000259201C12841253200C135C12C013000C129C12A43316D00000041316C004131C0
:202DC0007000012000412986004130F3FF4130EEFFC1B6C1384130ED00C137412C5A0041E3
:202DE0002C6300412C6700412C6600412C6200412C5D00422C5B0000422C690000C15F4103
:202E00002BD500412BDC28412BE200422BD30000412BE100412BD200412BD80043328600EA
:202E2000000041328900432AF8000000412AFD00C160492AEE4C6966656C696E65004E2AA7
:202E4000FE2001300380033105710584075A014134300041319A0041319800413199004104
:202E60002B8400412B7B32C161422B770000422B8A0000422B7E03E8422B790000422B8CD8
:202E80000000412B8100412DA000412D9E0041321DFF41321BFF41321A0A4231A00000C1A4
:202EA0004041319C004133430A41334400413345004129E51E4229F300004229EE0000422C
:202EC00029EC0FFF4229FC00004129E9004229E602034129EB004121C300412284004120FD
:202EE0007000C142C14141206EFF412026004121C402412210FF4121FE004127130041272B
:202F000065FF6050271401030300000505001C370501001C37000701000002030300000293
:202F200001001C370306001C370301001C370101001C370102020000000804000004040517
:202F400000000004051C410005000000FF03FE0000FFFFFE1C325927690207D01C3C030798
:202F6000D01C3C0500141C3C0107D01C3C0407D01C3C412680FF4126FCFF41270FFF41272F
:202F800010FF41270E004127030041270D0043270800000041270C004326FD000000412718
:202FA000020041270B00422711000042270400004227060000609625E90000000000000042
:202FC0000000000000000000000000000000000000000000000000000000000000000000F1
:202FE0000000000000000000000000000000000000000000000000000000000000000000D1
:203000000000000000000000000000000000000000000000000000000000000000000000B0
:20302000000000000000000000000000000000000000000000000000000000000000000090
:20304000000000000000000000000000000000413222004132200041321F00C144C143416C
:20306000321EFF4132210041312E00502A6DA81FFF7F3F3F079FFFFFFFFFFF1313FF502AE3
:203080007D00030000000100010080808080830300C114C10FC111C10CC116C108C10AC1B8
:2030A0000BC109C11AC118C11BC10EC115C110C112C10DC117C11C412B2E00412B2D00416B
:2030C0002B3900412B3800412B4100C119C193412B3B00422B2B0000412B2800422E71F465
:2030E00048C17844308F00000000423093000041309600442ADE00000000442AE2000000A4
:2031000000442AE600000000442AEA00000000422ACF0000422AD100006020278200000062
:203120000000000000000000000000000000000000000000000000000000000000604027C8
:20314000A200405734039874BC002B0A480000AFBB000A228D017E7248038E3A947B6B0118
:20316000000025352F0218A9FC001B199A00006DAC0006600600C30DEE0388EE64DB8F01AE
:20318000004133830041338400413382004132590041325700E00C026125008600000002B8
:2031A0000064010D043641338E0042338F000000F1000000000E1000000E1000000E100111
:2031C0000204080000000000000000000000000000000000000019F819FD1A021A071A0C57
:2031E0001A111A1B1A2AC2C91C0A1C0F1C141C191C1E1C231C281C2D19A319B219B719BCB8
:2032000019C119CB1B331B381B3D1B421B471C321C371C3C1C411C461AB61ABB1AC01AC522
:203220001ACF1AE31AE81AED1B061B0B1B101B1A1B1F1B241BAB1BB01BB51BC41BCE1BDD5E
:203240001DEA1DEF00000B691A521A5C1B4C1B921BF11D271E177F0191D8902CC0E0122CE9
:203260004A327D04328514328A15328F17329F3032A43432A93632AE37000032975357EF48
:20328000855780802F5358EF80085358DF800353587F855890801D5359DF8559A0801553CF
:2032A0005AFE800D535AEF8008535ABF8003535A7F855AB07F0CDFFE227F0191D89034091B
:2032C0007401F0903409E06037515A7F057153903409EFF071F9714F902CBBEFF0715590D0
:2032E0002CBCEFF071F9903409E05401F1E360D3A3E0F460CEEF30E7CAE4903409F080C33B
:20330000515A7F9F7153902CBDEFF07155902CC2EFF07155902CC3EFF091D4902CBBE0F4D1
:20332000601BA3E0F46016902CC2E0FD541F240FA3F0EDC41354074480902CC2F022122AE2
:20334000EC7808122A78E4E5C820E2FB8FEB22515A7FD771477FFF7147E5C820E2FBAFEBF0
:20336000227F0191D8304F16515A7F05715390340BEFF071F990340BE020E002C24F304F61
:203380001E714F902CBBEFF07155902CBCEFF1E3600BA3E0F46006EF30E702C24F71F9E449
:2033A000FF91D8A24FE433FF229031DD122B69F1C091E49031E1E06F6031B1FC7161EF60C2
:2033C00004B1B780F771ED515A902CBEE0FFB1AE6006F1C0781071439031DD713EF1C0E414
:2033E00071479031E1E0FF91D2D322C3227F0191D8D24F515A7F0671471258A1EF70FA9071
:203400002CC2E0F4600A9034087406F0F1EB70FC902CC0E0122C4A343304343814343D15AD
:20342000344217345230345734345C363461370000344A126E4E802F43581080084358200F
:203440008003435880855890801D4359208559A08015435A01800D435A108008435A408038
:2034600003435A80855AB0903408740CF0F1EB70FC22902F11122B69902F15122BD2B1FCF1
:203480007161EF6004B1B780F771ED515A902CBEE0FFB1AE600A902F11122AEC78107143C9
:2034A000902F11713E902F11122AECE4801A902F18F1F36017902F15126D0C6009902F1549
:2034C000E4126A858001E4FF714780E271F9E4FF8006714771F9E4FFEFB4010443FE202286
:2034E00053FEDF229031D8122B69B1FC7161EF6004B1B780F7B1A6600A9031D8122AEC7890
:203500001071439031D8713E9031D8122AECE471539031DCEFF091D49031DCE0FF22902FF8
:203520001A122B69902F1E122BD2B1FC7161EF6004B1B780F7B1A6600A902F1A122AEC78F4
:20354000107143902F1A713E902F1A122AECE47147902F21F1F360117155902F1E125A97A7
:20356000902F1FE412592280E871F9E4FF81D8B1FC7161EF6004B1B780F771ED515A7F01B4
:2035800071477F03714771F9E4FF81D8902CBBE020E01251567F3D71477F2A71477F80713E
:2035A000477FA691D2227F0191D8515A7F037147902CC1E0640222E51530E20FE51520E54D
:2035C0000AE51530E0057F0112462E2290340AEFF0902CC9E064027022515690340AE07FCC
:2035E000AB60027FB9714771F990340AE0902CC8F070047F1EDFFEE4FF91D82275FF02E58B
:20360000E430E10675E40675E403227A2C79C07F03126CF57A2C79C97D017F081219E97B82
:20362000017A2C79C67D027F09F1E07B017A2C79C47D027F0BF1E0902CC4E0FEA3E0FF4E65
:203640006006BEFF1CBFFF19902CC9E024FD6003047005126E698009902CC4E4F0A37440D5
:20366000F0902CC9E024FD6003047008902CC17403F08006902CC17402F0902CC0E0122C0E
:203680004A369D0436A21436AA1536B21736C83036D03436D83636E037000036BD126E5568
:2036A000804775FF015354EF800E75FF015354DF800675FF0153547F8554C9802C75FF01CB
:2036C0005355DF8555CA802175FF015356FE801675FF015356EF800E75FF015356BF80066E
:2036E00075FF0153567F8556CB71F97F11F1C6E4FFB1CC51B9902CBE7402F0902CC2E0240A
:203700007F6009047016F1CC740A8006B18CF1CC7458F0902CC17403F0126E69902CC3E094
:20372000F46002E1BE902CC6E0FEA3E0FF64104E7006902CC3740EF0EF64204E7006902C96
:20374000C3740FF0EF64404E7006902CC37410F0EF64804E7006902CC37411F0E4B5070AB4
:20376000EEB40106902CC37412F0E4B5070AEEB40206902CC37413F0E4B5070AEEB404060B
:20378000902CC37414F0E4B5070AEEB40806902CC37415F0E4B5070AEEB41006902CC3748B
:2037A00016F0E4B5070AEEB42006902CC37417F0E4B5070AEEB44006902CC37418F0A16FFA
:2037C0009031DD022AECEF4420F5FE227F10F1C6902CBE22B1FC7161EF6004B1B780F72216
:2037E0000219E9F0902CBBE0FFF422903408E014F0E02274FFF5F012285945F022902CBDFC
:20380000E01227A8902CC2E09000011227BA902CC3E09000020227BAEF75F004A4FDACF09C
:20382000E075F011A42408F9740035F0FAE92DF9EA3CFEAF01E4FCFD0234E4FEAF01E4FD6D
:20384000AB05E4FCFD9031E1EBF00233A9FEAF017B007A00799290314D7404F090314A1140
:203860007BC00790314A122BB290314DE0FF902F21E4F0A3EFF0D00702351E122BD2E4FCCE
:20388000FD229030A9117BC0079030A9122BB29030ACF1D3D007902E18122B69902E1C1286
:2038A0002BD2902E1C122BB2902E1F1241F2902E18122AECF1F25002214A902CC5E024FFFE
:2038C000FF902CC4E034FFFEE4FCFD902E18F1E6902E21EEF0A3EFF04E6034902E21126C50
:2038E000AE902CC5E09FFF902CC4E09EFE902E21F0A3EFF0902E1F314C9FEC9E500312578F
:20390000D3315C6004315380387E007F008032902E1FE0FEA3E0FF4E602E902CC4314CEFF3
:203920009DEE9C400A902E21ECF0A3EDF08006902E1F126DDA315C6004315380047E007F29
:2039400000902E1DF1E080C7D322C322E0FCA3E0FDD322902E21E0FEA3E0FF22902E1C12FC
:203960002BB2902E21E0FFA3E0902F18CFF0A3EFF0902E18122AEC123472902E21E0FEA3FB
:20398000E0FFC3902E20E09FF0902E1FE09EF0902E18122B08E4FCFD1228F1902E18122BB7
:2039A00069902E1C122BB2E94A22902F07122BD2902F0AECF0A3EDF0902A27E07002416CA6
:2039C0005172704FF127517B5049902F0A71EDA3518BE4FB7A18F9F8C3122A675035902F36
:2039E0000C122B08C3E49BFF74189AFEE499FDE498FCE4902F088FF0122843C3902F0BE00B
:203A00009FF0902F0AE09400F0902F0C122B75000018005182126E83902F0A71ED1228F12D
:203A2000902A08F1184040126BB54024E4F127517B4034902F0AE0FEA3E0FBE49BFF74A0B2
:203A40009EFE74019400FDE49400FCA3517B50175182C007902F07122BB2902F0AF1D3D0CE
:203A6000071196E4338001E4902F10F0902F10E0FF22E4FFFE7D02FC902A08122B08C30265
:203A80002A67902F0C122AEC902A1F122B080228F190339D122BD271EA902A23518BEF24D3
:203AA0000891437A2A790C91047402F012351E902A0C71ED51887A2A79119104740EF0125D
:203AC000351E910DEE3480914671FE902A1391177F0F7E1D71D371E1FFAEF0C006C007911E
:203AE0000DE43E71F6902A159117D007D00671D371E1FFAEF0C006C007910DEE348071F6A5
:203B0000902A179117D007D00671D371E1FFAEF0C006C00771EA902A23518B71FE902A1270
:203B2000E02400FE902A11E034E89028EEF0A3CEF0D007D00671D371E145F0C37001D32224
:203B40009028E8EEF0A3F1EC9028F0122B699028EEE0FFA3E09028F4CF80699028F4E0FE23
:203B6000A3E0FF4E6064C3EF9440EE94004006A37440F080059028F6EFF0F139FF9106EF5B
:203B8000F09028F0122AEC12351E9028F6E0FFC39028F5E09FF09028F4E09400F09028F0DC
:203BA000122B089028F6E4FCFDFE1228F19028F0122B6971CAF139FD126E11EDF01219F3D0
:203BC0009028E8EEF0A3EFF080919028E8E0FEA3E0FF22714090339D122BB2EE8FF002281B
:203BE000D290339D122BB202286F902A06E0FEA3E0FFE4FCFD22FEED3401FDE43CFC9028FB
:203C0000EA022B697B01902F21E4F0A322902A1F122AECE42FFF22E0FFA3E09028EECFF033
:203C2000A3EFF022FF7E04FDFCE0F8A3E0F9A3E0FAA3E0FB12290CE47B7DFAF9F812299737
:203C4000EF2401FFE43EFEE43DFDE43CFC22902B43122B6975FF0243E180124FCCF17E90EB
:203C60002B58122B75002DC6C0E4F5FFF5A490120EF0A3F0902B537402F0F11FFFF595EFBC
:203C800014601314601C24027027902B43B1C0F112902B4F8016902B47B1C0F112902B50BD
:203CA000800A902B4BB1C0F112902B51E0902B5CF0126647902B5CE0700FF5FFF59675FFE5
:203CC0000175D70975F418805790120EE004F0902B53E0126ED5902B58B1C0902B54126D5D
:203CE000A7C3122A675009902B54B1C0A3122B69902B5CE0FF1264C8902B52E0FFA3E0FDF5
:203D0000A25792551265F5A3B1C09031ED122B69902B53E0FF124A4D902B53B1B212643141
:203D2000F1306002817A7402F0F11FF595E5F454077019902B5891247801122A78902B5345
:203D4000124A3D122B69EBB1B3126431F13070D975FF03759580124FE8400343F420A257E7
:203D60009256126527902B58126DE52420FFEE344E9146E4FB7A04F9F891347801122A787C
:203D8000C254124BFEE4F5FFE5BD54F84404F5BD9012137401F07E127F01E4FDEF2DF58254
:203DA000E43EF583E0FC901213E02CF00DEDB412EB22E025E025E02401F582E43412F583E7
:203DC000E0FCA3E0FDA3E0FEA3E0FF22902E23126428902E29122B7500000001902E2D74EA
:203DE00001F0F5FFE5D554C070051256FB5002C322E4F5FF53967F75FF0175D504F1517547
:203E0000FF0143D508E4F5FF5394FBF5FF53847FF5FF7598FF902E27E5F4F075F49C75FF57
:203E200001A3E5E4F075E4257B017A2E792D1263F9902E2DE064016002C1F0F5FF902E2654
:203E40007414F0902E29B1C07801122A9F902E29122B69E5A730E1FB43A702902E29B1C0D5
:203E6000E5A730E005E47B018002E4FBFAF9F8EF4BFFEE4AFEED49FDEC48FC902E29122BFF
:203E800069902E26E014F070BA902E29B1C07810122A787B6D7A4E79C6784112290CEF2431
:203EA00039FFEE34309146E4FBFA7901F8122997EE547FFEE4FDFC1267DB902E29B1C0EB51
:203EC0006FFFEA6EFEE8CDEFCDCCEECCECFF902E23F1CAEF1227A8902E23F1CA900001EDB6
:203EE0001227BA90120FE030E606E4F5FF75968075FF01E4F5D5902E27E0F5F475FF01A3D6
:203F0000E0F5E4126516902E2DE0B40103D38001C322902B54022B69122B08D3022A6775DA
:203F2000FF03902B53E022FF7E18FDFC902F0C22902B53E0FF14F0EF227B017A2879F790D4
:203F400028F6E0227FC87E00F16175FF03439180227F3FFEF161F14A75FF03E59120E7FB05
:203F60002275FF03D3EF9402EE9400400874FE2FFF74FF3EFEEFF592EE540FF59122F19B3C
:203F800053DB7F75FF0175D5027F14F146F158F19B43DB8075FF01E4F5D52275FF01438EEB
:203FA0001075FF012290043F122BD2C252E4FF12462EBF010A90043F122BB2B1CC92527F8F
:203FC0000112462EA2522290326BE0FBA3E0FAA3E0F922E0FFA3E0902E1FCFF0A3EFF0227F
:203FE000EE8FF0022843122B08022A29EFF0A3022AEC9029B5122B699029B9122BD2E490AA
:2040000029DCF0D39029BDE0941E9029BCE094004001227B017A2979BE9029BCE0FFA3E057
:20402000902F21CFF0A3EFF09029B5122AEC12351E9029B9122BB2E94A600B9029DCE0F5FB
:20404000821177FF80027F009029DCE024BEF582E43429F583E06F6002C3229029DCE004C0
:20406000FFF0D39029BDE09F9029BCE0940050C122122BB21E8E8275830002275990300D09
:204080003112E58F20E0FB319B538FF075FF017E109030101171F593EE70F67E1090300D44
:2040A0001171F594EE70F67F0111C731B1EF70FB7E10903013122BB21E8E82758300E5931F
:2040C0001227BAEE70EC22EFB4010221A575FF01E58F54F04406F58F229031D23112E58FAE
:2040E00020E0FB319B538FF075FF01E4FF9031D2122BB28F821177F5930FEFB410EFE4FF98
:204100009031D5122BB28F821177F5940FEFB410EF22122BD275FF01229030163112E58FF2
:2041200020E0FB319BE58F54F04402F58F75FF017F10903016122BB21F8F821177F594909C
:20414000301C31BAE41227BAEF70E73192EA540FFD90301C122BB2EAC4F854F0C8E9C45480
:204160000F4854F04DF5923192E9F59875FF0190301C122BB2E9F59675FF0175991075FFDC
:204180000175971075FF0143912031A5E58F20E0FB2275FF01903019022BB275FF01538FAE
:2041A0000675FF012275FF01E58F54F64401F58F2275FF01E58F5401FF22122BB28F827570
:2041C0008300229033A33112E4FF9033A331BAE5931227BA0FEFB410F1229030B012387BE8
:2041E000C0079030B0122BB29030B331F2D007023FF2E0FFA3E09029BCCFF0A3EFF022E4DB
:20420000FF0234D8E4F97D0CAC0109EC90180E93FC0FEFAA0670010E14F5828A83ECF0DDC6
:20422000E77F03228F828E83E4F0A37404513774365137A3E4F022F08F828E83A3A3221203
:20424000360B1262611219D5125A039002B3E064017F0060027F01121A3E121A431219AD3D
:20426000126CB57A0279B6121976125010FE4FFDA3E0FC4DFDA3E0FB4D600BEE5FFFEC5F6D
:20428000FFEB5FF47002D14590121CE0FF540324B6F582E43402F583E06F9002B1F0227569
:2042A000FF0275E404E4F5E4C22E75FF02901215E0603CE5E6540364017034121A66124F2C
:2042C000714020901222E0600DE014F0700812189AE4901215F0901215E070026167124826
:2042E000AF616712189AD22EE4901215F0807812189A1262E19002B3EFF0901200E0B47A13
:2043000014901214E0B49C0D9002B3E0FF64056004EFB4032EE49002BCF09002BCE0FFC3BF
:2043200094405013E42FF582E43412F583E4F09002BCE004F080E3901200747AF09012148B
:20434000749CF01219EE7B017A1279107D017F011219E97A1279117F21126CF57A12791261
:204360007D017F221219E9121A6B1262E11258609002B3EFF01219DF12581B9002B3E0FF7D
:20438000B40602800C302E047F0280059002B3E0FF121A7FEF24FFB3925175FF0253E6BF88
:2043A0009002B3E064016005E4901215F01258AD121A70513F901215E0700F20510C121A81
:2043C000847B017A25799D121A2090121DE030E0028003302E047F01D12ED2AF305179123A
:2043E00059E5B12A121AA21219E440F39002B2E06042126271EF700512608E4037E51470A5
:20440000FCE51520E502D1D4121971EF70FA1262A6500512629250057F011235CC9002B264
:20442000E0B40204E4FF80099002B2E0B403057F011248CC1253E6E51530E1A3126D134025
:2044400002E4F0E51520E506B1187D01B1B09002BCB11B126E7B8087125031124FF7500280
:20446000D1459002B2E0605E902533E07058126271EF700512608E404DE51470FCE515205F
:20448000E50990121DE020E002D1D4121971EF70FA1262A6500512629250057F011235CC96
:2044A0009002B2E0B40203E480189002B2E0B403047F01800E9002B2E0B4050A90121574A4
:2044C00001F0FF1248CC1259E5B12A121A989002B0E070051253E6801512506DFF9002B050
:2044E000E0FEC3EF9EC394064002E4F0D2AD121807E51530E11A126D134002E4F0E5152084
:20450000E506B1187D01B1B09002BCB11B126E7B121A5712580681589002B4E075F0AA9062
:2045200002BF122BA6AF82AE8322900000E0605FE014F0E4F55DE55DC3940C50EDB190E007
:20454000FEA3E04E6045B1901257BA45F0703CB1A0E0FF6008F46005B1A0E014F0B1A0E04B
:204560006011E55D12600BE0FEA3E0FFB190EEF0A3EFF0F143E0FEA3E04E600CF143E0FEA9
:20458000A3E0AA06F9122C9D1235B7055D80A722E55D75F007A42492F582E43428F5832212
:2045A000E55D75F007A42498F582E43428F58322900439EEF0A3EFF0E514706D1256F350EE
:2045C00004C259D192900439E0FEA3E08E11F512AE11AF127DAA12639EE4F5FF75D901F5AF
:2045E00010E5155421602BE51530E504E4FFF197E490043BF090043BE004F0124E68EF60D6
:204600000990043BE0C3941040EB7F02121AA75315DE900413E07F00B403027F01F1D5D2DF
:2046200059D192D2EBA22D92ED22EFF07F01EF6008B118E4FDB1B080091256CDD1D4E43356
:20464000FF227F0122E4FFD12EEF60457B017A0279B6123FA59002B6E0C394C040EE7B011B
:204660007A0279B8123FA51250105FFFA3E05FFFA3E05FF460E890121DE030E0047F01D1C4
:204680002EE490121CF07B017A0279B6E0FD12197B2290340DE5F4F0E0547FF5F47F827ED9
:2046A00000F100F1385005E5FC20E6F730590890340DE04480F5F4D1FCF1385005E5FC2072
:2046C000E6F775FF01E5D520E702C322E5F4D330E601C322E51470221256F35004C259D112
:2046E00092124FF0F1E8E5D120E0FB4315205315FEE4F510A22D92EDD322C3227FE87E0376
:20470000F105023F4A90325AEEF0A3EFF07B017A32795C124ADF501490325CE0FEA3E0FF82
:2047200090325BE09F90325AE09E400B90325AE0FEA3E0FF123F612275FF03E591C330E7E1
:2047400001D322E55D75F007A42496F582E43428F583229031E3ECF0A3EDF0AA07AF03EFB4
:2047600070010FEF75F00AA4FFAEF0EA12600BEEF0A3EFF0EAB192EEF0A3EFF09031E6E03F
:20478000FFEAB1A2EFF09031E3E0FEA3E0FFEAF145EEF0A3EFF02275FF01E5D530E602C34E
:2047A00022E4F5FF439A80EF126ED5E4F5FF539A7FD322F1E4E5D120E0FBE4F5FF75D90178
:2047C000900413E07F00B403027F01F1D5D259D192E4F51022F19743FA04E4F5FF53D1FD79
:2047E00043D10122C259D192E4F5FFE5D154FE4402F5D12275FF0275E40475E40175E4026E
:204800002275FF0275E404E4F5E42290043311F5EBF090121DE05430600611F25002C32259
:20482000900433E0B4040BA311749004337403F08025900433E06405701890121DE0900448
:204840003430E50611747F1F8004117CE4FF11EA8005900434117C900433E09002B2F090B2
:204860000435E0901222F01260419002BDEEF0A3EFF0D322E0FB7D017F018006E0FB7D015C
:20488000E4FFEB600875FF0153CDFD800675FF0143CD02ED600553FBDF800343FB20EF6094
:2048A0000775FF0243E1402275FF0253E1BF2290121DE07B027D0130E5087F0111827F1F02
:2048C0008006E4FF1182E4FF11EA7F0143FB1075FF0243E640EF600D75FF02E5E120E7FBB7
:2048E00043FB0D800343FB0E80FE75FF028FE32280F8A22E22EFF0A3EDF0A3229030C311F4
:20490000F5EBF09030C97401F0C2581246FC1247385005E5FC20E6F65111BF0108E4F5FCA9
:2049200075FC4080075111BF0202D322F1449030C4E0FF1267E875FF0153D5DF53FAFB90D8
:2049400030C3E0FF1247979030C4E09030C3B4080DE0513F126DE52452123C438003123D38
:20496000B21264319030C5E0FF12684175FF0175FF03759B041246FC75FC42E5FC20E105D1
:2049800012473840F39030C6E0F075FF03E59B20E70512473840F3E59B20E70C75FF0375B7
:2049A0009B1FF1CCD258804E510A1263F99030C4E0FD90120FE05D701D9030C3E0FF510A26
:2049C00012665490120FE0FF9030C4E0FEEF4E90120FF0123D9071DB7B017A3079C751DF7A
:2049E000500FC39030C8E094209030C7E0940340E7510A12646F123F5830580221039030FD
:204A0000C9E0B40103D38001C3227B017A3079C9227FFA123F46E5FC30E60512473840F69F
:204A2000E5FC30E6037F032275FF01E5D530E6037F0222E5D57F0030E7027F0122E0FB25F9
:204A4000E025E02401F582E43412F583229031ECEFF0E4A3123C247801122A789031EC5161
:204A60003D122B69901210E0FF64806071EFC3947F5038EB513FC083C082123DC0EEC0E023
:204A8000EFC0E0901210E075F004A4AEF0FBCAEECAEA3395E0F9F8D0E0FFD0E0FEC3EF9BA0
:204AA000FFEE9AFEED99FDEC98802B9031ECE0513FC083C082126DA7901210E0F40475F008
:204AC00004A4FFAEF0EE3395E0FDFCEB2FFFEA3EFEE93DFDE83CFCD082D083122B692251C2
:204AE000F5AD94EF4D126EDD8FF01228D2E591C330E701D32275FF03AF93EF75F010A4FF56
:204B000022CDEFCDCCEECC51F5AB94EF4B126EDDCBEFCBFAE59130E71D51F8A994E9F58239
:204B2000EF4582FFEB2DF582EA3CF583C3EF9582E5F0958340DEE59120E709CEECCECFEDF5
:204B4000CF123F542290326AEFF0A312642875FF015111EF64016002C322E5F430E602C34D
:204B6000227FE87E03123F61123F4A71C5400122C25912469290326AE0FF12479753F4DF1F
:204B8000D2591246927F787E00710175FF0153E4BFE5E430E7FB126E5F7F8A71F630E60668
:204BA000123FC7E4800875FF01123FC7E5D91227A875FF0143E440F1E8400343F42071C5C0
:204BC000400122D322E5F730E50FE5F754C0700512473840F091F0C322D322E4F5FF75C2ED
:204BE000E17F1E71F630E707E4F5FF75C2A122E4F5FF75C28122FE710190120FE022902B50
:204C00008E122B69E4F5FF75BB0575BB8575FF0175D502205405123F5171DB75FF0143D5E9
:204C20002030540281C2E4F5FF538EF7438E077D04E4F5FF8DBCF5FF43B102E5B130E2FBD4
:204C4000E4F5FFAFDFEFFEACDEECFBEBFFED25E0248CF582E4342BF58391E9F5FFF5FF531D
:204C6000B1FD0DEDB40CCA902B8E123DC07809122A78A391E9FDED25E02496F582E4342BF5
:204C8000F583E0C313FAA3E013FB91DCE0C313FEA3E0132BFFEE3AFE91DCEEF0A3EFF0ED9A
:204CA000240490120DF0EDC394075016CFEDCF0DEF91DD126CAE902B93E09F902B92E09EC3
:204CC00050B4E4F5FF758EC8F5FF90120DE0F5BCE4F5FF75BB8075FF01F5D522ED25E024FA
:204CE00094F582E4342BF58322EEF0A3EFF0E42275FF03E4F59122C23BE49032F5F0C23CDD
:204D0000A3F0A3F075FF01E5D520E702C322C25AB1B7203B02A1A953F4DF9032F5E0FF1257
:204D2000479775FF0143D810303C0543F440800353F4BFE4F5FF53F5F09032F6E0FAA3E05F
:204D4000FBEA42F5EBF5F6D25AB1B7123F44E4F5FFE59320E60512473840F3303C57E5F47D
:204D600030E3047D288010E5F430E2047D288007E5F430E1027D2891F07F28123F46124723
:204D80003840FB7F78123F461247385028F13D50F7F16BEFC39D50F0F13D50ECE5F720E55E
:204DA000E7C25AB1B791F080DF53F4BFF1E8400543F420F144D322AFF4EF547FF5F4305A2B
:204DC00005EF4480F5F475FF01E5D520E702C322E5F4D330E601C322900445EFF0C25AB1E8
:204DE000B7D23B900445E09032F5F0D23CA3E4F0A3740DF0B104E4900446F01256FB503FA1
:204E0000900446E07039E5F754C060EFD155D155900446EFF0BF5513D155900446126E47FD
:204E20006F90044670147402F080D0900446E0B454057433F080C49004467401F080BC9042
:204E40000446E0B40207C259124692800091F7900446E0FF22E5F720E008E5F754C070F54A
:204E6000FF2243F701AFF922E4903262F0A304F0E4903265F0E5FA30E1FB75FF01E5D53038
:204E8000E7037F0022E4F5FF75E508F144E5D530E61A75FF01903264E5DAF0E4F5DA75FFBD
:204EA00001E5D630E3FB9032657401F075FF03759B0475FC4175FF03E59B30E7FBE4FB7502
:204EC000FF038B95EB123DB31264310BEBB403EF75FF03759580E4F5FF758EC871DB75FF1C
:204EE0000153D5FB91F07F14123F46123F5875FF0143D504903265E0700891F0123F441202
:204F00003F587B017A32796312646F903263E09032627006E04404FF8002E0FF903262EFD7
:204F2000F090120EE0B4010675FF0143D81075FF01903264E0F5DA903262E0FF2275FF01B2
:204F4000E5E4332275FF0153D8EF22E4FFE5F754C06002801675FF01E5D530E30DF13D50EA
:204F6000F4F16BEF60EFF13D50EB22126E5FAFD9225315FEE51530E5057F01124797D1686C
:204F8000EF70FB7F02121AA77F01B1D890044CEFF0BF0202801390044CE0B43311E4F07F3A
:204FA00001B1D8BF020D90044C7401F08005E490044CF090044CE0700C1256FB5005C2590C
:204FC000124692F1F090044CE024FF22E5FA30E1FB75FC8075FF0153D5EFE4F5FC75FC4013
:204FE00091F0E5FC20E6FB2290120EE0D3940122F1CC7F08021AA790121CE070111250107A
:205000004FFFA3E04FFFA3E04F7003D38001C3229002B6E0FFA3E0229002B1E064AA2411C1
:20502000FFF022AE071118EE04FEEF8EF084AFF02230500C902533E07006FF121A4DC2508B
:2050400011450219DA302E24116FFF900424E0FEEFC39E400AEF9ED394024010C22E2290EC
:205060000424E0F42FD394014002C22E22C2AD9028E6E0A3E022C0E0C0F0C083C082C0D052
:2050800075D008C0FF124A118F18E51864027052E51424F860422407600221CC900425F1F0
:2050A000BA45F07028AB1CAA1DA91E31EEAD16AF1FD133E4FB7D01FF71B275FF00D1C44395
:2050C000FA0475FF001247DD75140821CC43FA0475FF001247DD21CCC2EB75140043150440
:2050E00021CCE5186401600221CCF1B3400221CCE510702A851282851183E090044BF0E0EF
:20510000FF64556004EFB4540AD22E116F900424F0219B75100275FF0075D90821CCE5105B
:205120006402705631E2E090044BF012681D126180900413EFF090044BE0FFD394094025DE
:20514000900413E0D39402400CEFD394AA7F0040027F01800D90044BE0D394407F0040021E
:205160007F01EF600431D9803290044BE0FFF51675FF008FD97510038052E5106403704C89
:2051800031D975FF00900413E0C39403E5D350055402FF80035401FFEF60051247B3802C6B
:2051A000C25912469275FF001247EBE5D120E0FBC2EB431502751000900413E0B40307159B
:2051C0001631E2E516F09002B5E516F0D0FFD0D0D082D083D0F0D0E032302E05C22E124C22
:2051E000F722E5122407F582E43511F58322E4F5FFE9F1DAEA540F42D622900427EEF0A3EA
:20520000F1A6C2EBE51460026194E51530E202C322D1FB5005C2591246921247E8E5D120CA
:20522000E0FBE4F510C22E900428E05407C39403E494005022900430E0FF90042CE02FFF0E
:20524000E433FED3EF9440EE648094804009431504A22D92EDD32290042D122BB2CFE9CF9E
:205260008A118F12900430E0F516AE111263C0900429122BB28B1C8A1D891E90042CE0F519
:205280001F900427E0FCA3E0FD5460602E900431E0FFB1BC71A2FB7A00900425E0FEA3E0E3
:2052A000FF7C007D171227DCEF2BFFEA3EFEEF2414FBE43EFA7D027F01617C900427A3E033
:2052C0005407900414F0751408900429122BB231EE90042CE0FFAD16D133900414E064032A
:2052E00070237B01FD719FB19B5007B18D7401122786E4F5FFD1C471A22428FBE433FA7D28
:2053000003E4FF8077900414E06402701D719CB19B4007B18D74FF122786D1D771A2241432
:20532000FBE433FA7D027F018052E4719CB19B4007B18D74FF122786E4F5FFB18544104EEC
:205340007F0560027F0AEF547FFFE5D254804FF5D2E4F5FF43D28071A2FD7C00B1854410F9
:205360004E7E0060047F0A80027F05EF25E0FFEE33FEEF2DFBEE3CFA7D017F011261ADB152
:2053800085FFF18D4006A22D92EDC322A22D92EDD2EBD322A22D92EDD2EBC322FB7D01FF2A
:2053A00071B2900429122BB2E92407F9E43AFA022740E4F5FF75D102E5D120E0FBE4F5FFE7
:2053C000F5D1EF6008E4F5FF43D2808006E4F5FF53D27FEB6006E4F5FF43D104ED6006E4C9
:2053E000F5FF43D10822E4900449D1BC75F0E5E55EB17FE054F064407002A138E4FE75F016
:20540000E5EEB17FE0FDB4010990044AEEF0E4FF8023EDB4020B90044AE0B4FF04EEF0802B
:205420000F75F0E5EEB17FE054F0FDBD80027F010EEEB403C9EF600690044A74FFF090046F
:205440004AE0F47002A138D1E35002A138E51530E102A13890044AE0900004D10630E408D9
:20546000900006D118549FF090044AE09000B8D106540FFEBE05089000BCD11830E11490D7
:20548000044AE0900003D12120E5219000BBD12AB4FF1990044AE0D10FC083C082E04401D9
:2054A000FFA3E0D082D083CFF0A3EFF090044AE0FDD10FE0FEA3E0FFC006C007ED75F0E5C5
:2054C000A424B3F9740035F0FA7B01C002C00190044AE09000D9D12190042CF0EF75F0E5C4
:2054E000A42409F9740035F0FAA3122BD290044AE0FF75F0E59000B2122BA6E0900430F0DD
:205500009000DAD12A900431F0E4A3F0D001D002D007D00631FA502090044AE0F55E75F099
:20552000E5B17FE04440F09004497401F09022A2F0E51530E202D322E51530E2377F04F1C2
:20554000C875F0E5E55EB17FE0FF54F06440701F75F0E5E55EB17FEF540FF075F0E5E55EE4
:20556000B17FE04480F0E55ED1AD1219A880057F0112462E900449E024FF2275F0E5EF907D
:205580000001022BA6900427E0FEA3E022900429122BB2E92407F9E43AFA22FF900430E063
:2055A000FD90042CE02DFDE433FCED2401FDE43CFCD3EF9DEC6480F87480982290043CF150
:2055C000D1751401E4FBFDFF71B27B017A04791631EEE4FD7F02D133D1D79004167455F059
:2055E00090043CE0900417F09004147402F090043EE090042530E507E4F0A3743CF022E4AE
:20560000F0A374F0F022FF75F0E5122BA6E02275F0E5900005022BA675F0E5EF122BA6E0A5
:2056200022FF75F0E5122BA6E02275F0E5EF122BA6E022E4F5FF8FD4F5FFCFEDCF8FD522BC
:20564000900447EFD1BCFEFD75F0E5EDB17FE0FC700C900448E0B4FF02EDF00F8006EC303A
:20566000E0027E010DEDB403DF900447E06401600DEFC394025007EE7004A374FFF0900411
:2056800048E0FFC39403501EEFD1AD7DE5E4FF12196C900447E04410FFA3E0FE75F0E5B148
:2056A0007FEFF0EE80077B007A0079002275F0E5A42401F9740035F0FA7B0122F0A374FF44
:2056C000F0E4FF22E5D254804414F5D222F103EF700471E680F722E4F5FFE5D25480440A11
:2056E000F5D222D1FB5004F1AC4003302E03D38001C322C2EBA2ED922DC2EDE5F4C330E7CA
:2057000001D322E4FFB17BE054F0FEBE40037F00220FEFB403EF7F0122900415E0FDFFC332
:20572000740EF1C1EFC4F8540FC868FFEEC454F048FEE51754F0C39FEEB1B57F005002AF46
:205740000522EF30E303AF1322AD1B202F04EE30E00BE517C394F05020F1198018E51A6061
:2057600006FDE4F51A8012E517C394F0500BE517540FFF6004F17CAD07AF0522F1E3FFC3B4
:20578000940E40027F0DEF9018D293FF224315015315DFF1421261214004E4F5142253155A
:2057A000FB1247D7D322EFF0A3022BD2E5F754E024FF22E5F754C024FF2274FFF5F002283C
:2057C000439FFFE49400FE22C2AFEFF45215D2AF22EFF0A3ECF0A3EDF022F5D7E4F5FF53FB
:2057E000D6F022E517C4540FFEEF9018F0932E229002BAE0FCA3E04C700A9002BAEEF0A3F8
:20580000EFF0D322C3229002BAE0FEA3E0FF4E6009CAEECAC9EFC9122C9D22E4F557F558EF
:20582000F559F55A75FF0185FD5375FF0185C95475FF0185CA5575FF0185CB5622EF1144D0
:20584000F0020000901221F090340C22901221E0FFF4600590340CEFF074FF1144E0FF223E
:20586000901221E0FE640690340C6004EFF08008EEF090122174FFF090340CE0FF22EFB40A
:205880000109D2AD75FF0143AE4022C2AD75FF0153AEBF2275C80122E5C85402FF75C80250
:2058A00022E5C85404FF22E5C85401FF2275FF02D2ADD2BD75FF02758E71755B0975FF02C0
:2058C000E58E546F4480F58E22C0E0C0F0C083C082C0D075D008C0FF75FF02E58E30E42893
:2058E00075FF02E58E54EF4410F58E900000E004F0E55B30E0020531E55B700A755B099096
:2059000028E631228002155B75FF02E58530E404312E055CD0FFD0D0D082D083D0F0D0E0F8
:2059200032E475F00102284375FF0253857F75FF0243851022AB07AA063128ED4C70050DCB
:20594000BD00010CD3ED94FFEC9403500AEDF586EC4430F5858052D3ED94FCEC940F5017F3
:20596000EDAE047802CEC313CE13D8F9AC06F586EC4434F5858032D3ED94F0EC943F501692
:20598000ECC4F854F0C868FCEDC4540F48F586EC4438F5858013EDAE047806CEC313CE1301
:2059A000D8F9F586EE443CF5859033A631C2D23AE4F55C75FF0243854075FF02438580D208
:2059C0003922AF03EAF0A3EFF0223128C239E4F55CC23A2230390D3128E4F55CD23A75FF11
:2059E0000243858022303A13E55C600F155C9033A6E0FEA3E0FF4E600231FC22AA06A90775
:205A0000022C9DE4F55CC23A229031E7EEF0A31248F5EBF07FFFA3E0F9E9C3940C5024E972
:205A2000124592E0FCA3E04C7016AF019031E7E0FC5156A3E09031E6F0124753E904FF229D
:205A40000980D6227E1A7FC07BFF7D649031EB7402F080B5E0FFA3E0FDA3E0FB22E4FB7DF1
:205A600001E49031EBF080A19030B5122BD29030B5122BB2126037AE04AF059030BAE0FD36
:205A8000A3E0FB51619030B55197519EB4FF04E41227A8519EFF22122BB2EF0227A890308F
:205AA000B5122BB2022740903144EDF0903141122BD2E4903146F01227A871AA714B903192
:205AC000477480F0903147E0D3940040367142712A903145E0FF126ABF903146EFF0E47F1F
:205AE00003712DE58030E10E90314151A1FF903147E04F1227A8910A712A903147E0C31382
:205B0000F080C1903144E07004B150800571AA8557808553FD712A7142910171AA714BE48E
:205B20007F14712D903146E0FF22E47F01FEFDFC021B9C75FF014353025357FD8557808583
:205B400053FD75FF014353015357FE8557808553FD22903397EFF0E4A3F0A37480F09033F4
:205B600099E0FFD394004026903397E0FEEF5E7004B150800571AA8557808553FD712A7109
:205B8000429101712A903399E0C313F080D07133712AE58030E1069033987401F0910AE44A
:205BA0007F14712D903398E0FF2275FF014353025357FD22E490345CF0FF71AA714B7E80BA
:205BC000EED39400401671420000E58030E103EF4EFF910A0000EEC313FE80E4EF1227A821
:205BE000ED7004B150800571AA8557808553FD71420000910A000071AA714B90345CE0FF4E
:205C000022E47F05FEFDFC121B9C5357FE85578075FF015353FE8553FD22910AB1478553BB
:205C2000FD712A7142E47F0A712D71AA714BF186021B9C910AE4FEEF30E70771AA85578006
:205C40008002B1508553FD00000000000000000000000000000000000000000000000000EC
:205C6000000000000000000000000000000000000000000000000071420000000000000071
:205C8000000000000000000000000000000000000000000000000000000000000000000004
:205CA000000000000000000000910AEF25E0FF0EEE6408708271AA714B0000000000000025
:205CC0000000000000000000000000000000000000000000000000000000000000000000C4
:205CE0000000000000000000007142000000000000000000000000000000000000000000F1
:205D0000000000000000000000000000000000000000000000000000000000E4FFFEE5803D
:205D200030E10B0FBF00010EBE02F3BFBCF0810A71AA714B712A7142B1478553FDE47F0A62
:205D40009104F186021B9CE47F01FEFDFC121B9C5357FD85578075FF015353FD22E4FE7DBE
:205D600080EDD39400401CED5F7004B150800571AA8557808553FD71420000910AEDC31350
:205D8000FD80DE7133E58030E1027E01910AAF062271AA714B910AE4FE0000000000000047
:205DA0000000000000000000000000000000000000000000000000000000000000000000E3
:205DC000000000000000000000EF25E0FF714200000000000000000000000000000000001D
:205DE00000000000000000000000000000000000000000000000000000000000000000E5BE
:205E00008030E1010F910A0EEE6408708CB1508553FD00000000000000000000000000000C
:205E2000000000000000000000000000000000000000000000000000000000000000000062
:205E400000007142000000000000000000000000000000000000000000000000000000008F
:205E60000000000000000000000000000000000000000000810A71AA714B910AE4FE000043
:205E8000000000000000000000000000000000000000000000000000000000000000000002
:205EA0000000000000000000000000000000EF25E0FF71420000000000000000000000003C
:205EC0000000000000000000000000000000000000000000000000000000000000000000C2
:205EE00000000000E58030E1010F910A0EEE6408708C71AA714B0000000000000000000046
:205F0000000000000000000000000000000000000000000000000000000000000000000081
:205F20000000000000007142000000000000000000000000000000000000000000000000AE
:205F4000000000000000000000000000000000000000000000000000810A71AA714B0000DF
:205F600071420000B1508553FD0000910A000022910A0000B1508553FD0000714200007146
:205F8000AA714B000022E47F0AFEFDFC22714271AA614BB130E4FF7152EF70047F06715247
:205FA000227133000000000000000000000000000000000000000000000000B1508553FD45
:205FC00000000000000000000000000000000000000000000000000022F0F1A1E4FD7FA21B
:205FE000EF54FE4DFF8133613312602F501212600A126003600AEF124592ECF0A3EDF00E2C
:20600000AF0622E0FCA3E0FD4C22EF75F007A42494F582E43428F58322112F500F110AE439
:20602000F0A3F0EF124592E4F0A3F00EAF0622E4FE1FEFC3940C22122740FF1119E4022795
:20604000A8A2AFE433FFC2AF9028E6E0FCA3E0FBAA04EF24FF92AFAE02AF03229033A8EEEA
:20606000F0A3EFF011419033A812394C9FEC9E5009C3EF9DFFEE9CFE80139033A811A0FC57
:20608000ED2401FDE43CFCED2FFFEC3EFE229002BDE0FEA3E0FF115CD3EF94C8EE94002292
:2060A000E0FCA3E0F4FDECF422AF14EFC36001D322EFC3940E5005900415EFF022E5175420
:2060C0000FFF22E517C394F050205317F01257E3FE740FC39F4005EE940E400543170D8053
:2060E00003EF4217E517540FFF227F0022E51754F0C4540F2FFFC3941040027F0FEF9018D1
:20610000E093FF227E10EE60091EEE9018E093B507F4EEC3940E40027E0DEE9018D293FF15
:2061200022900437EFF0900414E024FD601104700731687404F0801231687408F0800BE4F7
:20614000900438F09004367402F07F01121AA7900438E0FF900436E0FDA3E0FBE49030C6C6
:20616000F01248FC50E9D3229004387401F090043622E4F5140246D4C2AFEF4215D2AF222B
:20618000EF24FE600C24FE600580007F01227F02227F0322E51520E5081247E4E5D120E098
:2061A000FBE4F51022900425E0A3E0FF22900442EFF0ED24FE60191460262402703BEB24E5
:2061C00002FFE43AFE7C007D501227DC7D60801E5121C333CE33CED8F9FF7C007D28800E13
:2061E0005121C333CE33CED8F9FF7C007D641227EE900443EEF0A3EFF0900442E0512CC0EA
:2062000083C082122B08900444E02401FF900443E03400FEE4FCFD1228F1D082D083022BD5
:2062200069EB2401FFE43AFEEF78032225E025E02418F582E43404F58322EF512C122AEC37
:20624000022AD2E4FFFEFDFC900418515890041C5158900420022B69122B69E4FFFEFDFCEE
:2062600022E4FF12557BE4F00FEFB403F6E4F55E22E4FF12557BE060037F00220FEFB40301
:20628000F27F0122E40227A8122740540F0227A880F67F017E009017FCE4935EFE74019316
:2062A0005F4E24FFB322900001740193B40007E493B41802C322D322EF7011ED600775FF8E
:2062C0000143AE012275FF0153AEFE22EFB40110ED600775FF0143AE022275FF0153AEFD0E
:2062E0002275FF02E5E630E2037F0322E5E630E3037F0022E5E630E1037F0422E5E67F052D
:2063000030E0027F0122EF600775FF0253E6BF2275FF0243E64022EF14600F1460142402C2
:2063200070188B8075FF018DFD228B9075FF018DC9228BA075FF018DCA22AF038FB075FF23
:2063400001AF058FCB229030BD122BD2EF1460111460182402701E7180E5807186E5FD801D
:206360001C7180E5907186E5C980127180E5A07186E5CA80087180E5B07186E5CB0227A8C2
:206380009030C0022BB21227A875FF019030BD022BB2E4F5FFAF9122E4F5FFAF9222E4F59E
:2063A000FF75D102E5D120E0FBE4F5D1F5FFEF1257DAEE540F42D6E4F5FFCFEDCF8FD422C4
:2063C000E4F5FFEFF5D8E4F5FF53D60FEE540FC4F854F0C8E4C4540F4842D622E4F5FF8F0C
:2063E000D422E4F5FFE5D1540133333354F8FFE4F5FFE5D354074FFF229032F291287F0198
:206400007C127D01E4FEED2EF582E43CF583E02FFF0EEEB412F0901213E06F600A9032F282
:20642000123FCAE41227A822EBF0A3EAF0A3E9F02290325E122B6975FF0190325EA3E0FD89
:20644000A3A3E4FFFEE4FC7810122A788FE190325EA3A3E0FEA391658FE290325EA3A3A332
:20646000E0FF8FE322E4FFE4FDFC7808022A78C25375FF03759B1F75FF0390120FE0FF20E3
:20648000E71BE59A540FC394024012EF4480F0E4F5FF75C2A143FC0475FF03D253E5FC302A
:2064A000E609E59A540FC3940540CCE5FC30E611E41227A875FC80F5FC75FC40E5FC20E65C
:2064C000FB305303123D9022EF30E00E43F401E4F5FF43A404F5FF759624EF30E10E43F4CA
:2064E00001E4F5FF43A408F5FF759624EF30E20943F402E4F5FF75961EEF30E30943F40427
:20650000E4F5FF75961075FF01EF5403600475D7122275D72D22E4F5FF7584E6F5FF4394CC
:2065200004F5FF75981422E4F5FF75933F75FF03759A40B116E4F5FF759C93F5FF75A1A34B
:20654000F5FF758531F5FF758628E5FA54304480F5FA75FF0175E74A75FF0275DF4975FF4D
:206560000143D30475FF0153D367E4F5FF53E6BF75FF0175D825F5FF75B503F5FF75B215F6
:20658000F5FF75BA02F5FF75AFB3F5FF75CD0AF5FF75CB08F5FF75CA12F5FF75BF0EF5FF20
:2065A00075CC96F5FFF5BDF5FF75C281F5FF75AEE1F5FF75DA55F5FF75F580F5FF75E903EF
:2065C000F5FF75E933F5FF75972A75FF01759B42759CA4759D29759E48759F2475A1127525
:2065E000A312759AF820560CF5FF43968090120FE04440F022CCEFCCCFEDCF74017E00C81C
:20660000EFC8088005C333CE33CED8F9FFCDECCDEF5D601B30551875FF0175DCAD75FF01CF
:2066200075DDCDE4F5FF759A74F5FF7594842275FF0175DC5375FF0175DD33E4F5FF759A43
:2066400014F5FF7594042275FF0175E46575FF0175D64722903266EDF0901211E0FEF460BD
:2066600006A3E0FDB4FF0C9032687418F0A37413F08008903268EEF0A3EDF0122740640127
:206680006002E1B5903266E0FE64086004EEB404089032677428F08006903267743AF0EF8D
:2066A000123DB3122A43E4F1B6EF24D8FFEE343FFEED3493FDEC3416FC7B007A8079037839
:2066C00000121856F1DB903269E0FF903268E0C31257C1E4FCFD12290CECC0E0EDC0E0EE42
:2066E000C0E0EFC0E0903269E0FFE4FCFDFEF1B6D0E0FBD0E0FAD0E0F9D0E0F8EB2FFBEA3A
:206700003EFAE93DF9E83CF8903267E0FFE4FCFDFE12290CEF2454FFEE340B123C46E47B56
:20672000A87A16F9F8121856CBEFCB903266E014605E14601B24FE600C24FC7078E4F5FF54
:2067400075CE318006E4F5FF75CE21F5FF8BCF22E4FAE4F5FFEA2440F5CEE4F5FFEAFFC348
:2067600074071257C174432FF58274183EF583E4F1BEC39DF5CFE4F5FFEA2448F5CEE4F554
:20678000FFEA901843F1BE2DF5CF0AEAB408C322E4F5FF75CE01F5FF8BCFF5FF75CE0EF54C
:2067A000FFEB25E0F5CFE4F5FF75CE0FF5FFEB75F003A4F5CF227B64FAF9F802290C932572
:2067C000E0FDE433FCEB75F010A4FFAEF01227EECDEFCDEBFFE4C313EF1322C8ECC8C9ED7E
:2067E000C9CAEECACBEFCB2275FF01E5D530E602C32253FACFEFB4080543FA308012EFB40D
:20680000040543FA208009EFB4020543FA108000D322E5F45418131313541FFF22E5F754DB
:2068200006FFBF06037F0822E5F75406FFBF04037F0422E5F75406FFBF02037F02227F0126
:206840002275FF018FDA2275FF01E5D520E602C322E5FA540360FA75FF018FC3D322CEEFF1
:20686000CE75FF01E5D520E602C32243FA04E4FDEDC39E50077F5511470D80F4E5FA543057
:2068800070047F0F80027FF01147D322E5F71322E490338EF02290338EE0C36001D32253C3
:2068A000897F5389BF5389DF438910D2ABD2AF758D82758BFFD28E22E490338FF0A3F022C0
:2068C0007F0120AF027F0090345BEFF0C28E758D82758BFFC28BD28EC3903390E094F1905F
:2068E000338FE094015007E475F00102284390338E740180027405F0E4A3F0A3F022C0E0D6
:20690000C0F0C083C082C0D075D000C000C001C002C003C004C005C006C007C0FF11C0D0F1
